:020000040800F2
:100000000080012071680008C1680008C16800080C
:10001000C1680008C1680008C1680008000000004D
:10002000000000000000000000000000C16800089F
:10003000C168000800000000C1680008C16800082D
:10004000C1680008C1680008C1680008C1680008EC
:10005000C1680008C1680008C1680008C1680008DC
:10006000C1680008C1680008C1680008C1680008CC
:10007000C1680008C1680008C1680008C1680008BC
:10008000C1680008C1680008C1680008C1680008AC
:10009000C1680008C1680008C1680008C16800089C
:1000A000C1680008C1680008C1680008C16800088C
:1000B000C1680008C1680008C1680008C16800087C
:1000C000C1680008C1680008C1680008C16800086C
:1000D000C1680008C1680008C1680008C16800085C
:1000E000C1680008C1680008C1680008C16800084C
:1000F000C1680008C1680008C1680008C16800083C
:10010000C1680008C1680008C1680008C16800082B
:10011000C1680008C1680008C1680008C16800081B
:10012000C1680008C1680008C1680008C16800080B
:10013000C16800080000000000000000C16800085D
:10014000C1680008C1680008C1680008C1680008EB
:10015000C1680008C1680008C1680008C1680008DB
:10016000C1680008C1680008C1680008C1680008CB
:10017000C1680008C1680008C168000800000000EC
:1001800000000000C168000800000000000000003E
:10019000C16800080000000000000000C1680008FD
:1001A000000000000000000000000000C16800081E
:1001B000C1680008C1680008C1680008C16800087B
:0401C000C16800080A
:1001C800044B05481B1A062B02D9044B03B11847E8
:1001D800704700BF5F0400205C040020000000009E
:1001E80005490648091A891001EBD171491002D056
:1001F800034B03B1184770475C0400205C040020DF
:100208000000000010B5064C237843B9FFF7D8FF6B
:10021800044B13B10448AFF300800123237010BDD1
:100228005C04002000000000D868000808B5084BEE
:100238001BB108490848AFF300800848036813B9A0
:10024800BDE80840CCE7064B002BF9D09847F7E704
:100258000000000060040020D8680008580400204E
:1002680000000000134B002B08BF114B9D46A3F55F
:10027800803A00218B460F461148124A121A06F09E
:1002880097F90D4B002B00D098470C4B002B00D052
:1002980098470020002104000D000B4806F030F9B3
:1002A80006F05EF92000290006F08EFA06F02EF915
:1002B800000008000000000000000000000000002E
:1002C8005C04002078040020356500080000000068
:1002D80082B000220023CDE90023DDE900230CA130
:1002E800D1E90001994208BF90420CD3DDE900230F
:1002F800013243F10003CDE90023DDE900239942EF
:1003080008BF9042F2D202B0704700BFAFF300803E
:100318003F548900000000003849394BD1F8882043
:10032800384842F47002C1F888201A68002142F067
:1003380001021A6099601A6822F0847222F48032ED
:100348001A6058601A6882B022F480221A60D96054
:10035800009101911A6842F480321A601A4603E04B
:10036800009BB3F5A06F09D0136803F40033019321
:10037800009B01330093019B002BF1D0204B1B689D
:1003880013F4003318BF01230193019B012B05D0FF
:100398001A4B4FF000629A6002B07047184B1A4926
:1003A8001A6C1A4842F080521A640A6842F4804271
:1003B8000A609A689A609A6842F400429A609A6859
:1003C80042F4A0529A6058601A6842F080721A602B
:1003D8001A689201FCD50E49094A40F20560086086
:1003E800996821F003019960996841F002019960C8
:1003F800936803F00C03082BFAD1C9E700ED00E07D
:1004080000380240103000240070004019544007A2
:10041800003C0240154A936803F00C03042B23D0D8
:10042800082B09D0124B114A12499268C2F30312E1
:100438008A5CD3400B617047506851685268430228
:10044800C2F3881201F03F014CBF0B4B084BB3FBC2
:10045800F1F303FB02F3054A5268C2F30142013289
:100468005200B3FBF2F3DEE7034BDCE7003802404F
:100478000024F4000400002000127A0008B53C4B68
:10048800984224D03B4B98422BD03B4B984232D0D9
:100498003A4B984239D03A4B984240D0394B98421F
:1004A80047D0394B98424ED0384B984255D0384BAC
:1004B800984200D008BD01214FF4807003F0ECF899
:1004C80000214FF48070BDE8084003F0E5B8012131
:1004D800084603F0E1F800210120BDE8084003F0D8
:1004E800DBB80121022003F0D7F800210220BDE883
:1004F800084003F0D1B80121042003F0CDF8002111
:100508000420BDE8084003F0C7B80121082003F023
:10051800C3F800210820BDE8084003F0BDB8012158
:10052800102003F0B9F800211020BDE8084003F0BE
:10053800B3B80121202003F0AFF800212020BDE846
:10054800084003F0A9B80121402003F0A5F80021D4
:100558004020BDE8084003F09FB80121802003F047
:100568009BF800218020BDE8084003F095B800BF43
:10057800000002400004024000080240000C024053
:10058800001002400014024000180240001C024003
:100598000020024000222DE9F0471346D1F800E080
:1005A80001274FF0030C04E00133102B02F1020283
:1005B80029D007FA03F434EA0E05F5D1D0F8008003
:1005C8000E790CFA02F5ED4308EA0508C0F8008038
:1005D800D0F800A006FA02F9013E49EA0A09012EFC
:1005E8000CFA02F8C0F800900FD9C568CC7925EA52
:1005F8000805C560C568944001332C43102BC460BE
:1006080002F10202D5D1BDE8F087D0F808904E7902
:1006180005EA09058560D0F808908D79964046EA84
:1006280009068660466826EA04044460466805FAB6
:1006380003F4A4B234434460D7E700BF00234FF665
:10064800FF720260037143718371C371704700BF09
:1006580082B04FF480330193019B0B430193019BBC
:10066800C361C161019BC361C3690193C3690193FC
:1006780002B070470369194214BF01200020704777
:10068800006980B2704700BF4369194214BF012056
:1006980000207047406980B2704700BF01837047EF
:1006A800418370470AB9418370470183704700BF8F
:1006B800416170474369594041617047CB0800EB7D
:1006C800830001F0070110B4036A89000F248C40ED
:1006D80023EA04030362036A5DF8044B02FA01F19A
:1006E80019430162704700BF08B501214FF400604B
:1006F80002F0F6FF00214FF40060BDE8084002F068
:10070800EFBF00BF034A536823F4C0731843506017
:10071800704700BF002C004082B0084A00230193B4
:10072800536823F07F030193019B00F07F00184377
:100738000190019B536002B0704700BF002C00403D
:10074800014B01221A607047A4800542024B00F059
:100758007F001860704700BF002C0040024B40F03B
:1007680080001860704700BF002C0040024B98685A
:10077800003018BF01207047002C0040014B0022B8
:100788009A607047002C0040F0B501F003038DB06B
:100798000024DB00ADF806400D46074616460294D5
:1007A800ADF8063000F062FE202303A803940494F9
:1007B800059300F067FEBDF8060080B200F092FED7
:1007C8003C4635B154F8040B00F098FEE31BAB42ED
:1007D800F8D300F0AFFE00E068B1082000F004FF95
:1007E800029B01330293029BB3F5803FF4D110B111
:1007F80000200DB0F0BD07A800F08EFE079B1BBAC5
:100808003360089B1BBA7360099B1BBAB3600A9BD1
:100818001BBAF3600B9B1BBA012033610DB0F0BD0E
:100828002DE9F0410D468CB003F003011F4605F099
:1008380003030024DB00C900ADF804409046ADF87E
:10084800064006460294ADF80410ADF8063000F0F4
:100858000DFE40222023954203940492059325D946
:100868004FF4803303A8069300F00CFEBDF8060091
:1008780080B200F037FE344654F8040B00F03EFE18
:10088800A31BAB42F8D300F055FE00E0D0B108201E
:1008980000F0AAFE029B01330293029BB3F5803F4E
:1008A800F4D178B100200CB0BDE8F08103A806941B
:1008B80000F0E8FDBDF8060080B200F013FE002D40
:1008C800D9D1E0E7BDF8040080B200F00BFE444641
:1008D8003FB154F8040B00F011FEA4EB0803BB422F
:1008E800F7D300F027FE0023029300E058B1082058
:1008F80000F07AFE029B01330293029BB3F5803F1E
:10090800F4D10028CED1BDF8060080B200F0EAFD8F
:10091800344635B154F8040B00F0F0FDA31B9D429A
:10092800F8D800F007FE0023029300E058B1082031
:1009380000F05AFE029B01330293029BB3F5803FFD
:10094800F4D10028AED107A800F0E6FD079B1BBA3A
:10095800129A1360089B1BBA5360099B1BBA9360D9
:100968000A9B1BBAD3600B9B1BBA012013619AE741
:10097800044B054900221A605A609A60DA6059618E
:10098800704700BF003C0140FFFF7F00837933B30D
:100998001C4B0279417970B404681E68E5432E4007
:1009A8001E605E6802F1804202F59E3235405D604D
:1009B80015682C43146002689C68D04304409C600E
:1009C800DC68102900EA0400D86013D001F18043E4
:1009D80003F59E3370BC19680A431A60704703799F
:1009E800016803F1804303F59E331A6822EA010285
:1009F8001A607047996811439960D9680A43DA60A8
:100A080070BC7047003C014000230C224271036017
:100A180003718371704700BF024A1369184310615C
:100A2800704700BF003C0140034B5B69034214BFA1
:100A380001200020704700BF003C0140014B586175
:100A4800704700BF003C0140054B1A685B690340D2
:100A580004D0024214BF0120002070471846704796
:100A6800003C0140014B5861704700BF003C014009
:100A78004FF0204360B143F2D20243F820208000B7
:100A880000F120406FF070434360C0F804317047B4
:100A980043F2DB021A60F2E7816843688269F0B4C6
:100AA800C66805694469C7690B4333432B4323432D
:100AB800066A456A846A13433B43026833432B43FF
:100AC800C66A056B23439200334302F120422B434D
:100AD800082913601CD0416B8D690B684C688F68BE
:100AE8002B4343EA0413CD680C69496943EA072399
:100AF80043EA054343EA045343EA0163B6F5804FEA
:100B080053600AD06FF07043C2F80431F0BC7047EC
:100B1800136843F040031360DDE7816B8E690B684F
:100B28004D688C6808694969334343EA051343EA09
:100B3800042343EA005343EA0163C2F80431F0BCDA
:100B4800704700BFF0B4816B446B022343600F22EF
:100B58000023FF254FF480574FF400564762866202
:100B680003608360C360036143618361C36103629F
:100B7800C3620363A36122606260E2602261626112
:100B8800A5600A604A608D60CA600A614A618B612B
:100B9800F0BC7047800000F1204021B90268044B86
:100BA800134003607047036843F001030360704714
:100BB800FEFF0F0010280CBF054B064B4FF0FC3210
:100BC80018204021186059609A60DA60704700BFA9
:100BD800600000A0800000A0F0B5076A856843683F
:100BE800C469BA68A1680669D7F800C0D4F80CE0EF
:100BF80083B02B430192C268656843F0080313432E
:100C08000904019A3343466941EA0525796843EAAC
:100C1800462312048669006842EA01222168FC68BA
:100C280010280CBF07480848294342EA0C0243EA47
:100C3800463341EA0E6142EA046203608160C260A1
:100C480003B0F0BD600000A0800000A010B4016AED
:100C5800C469102303600022FC2342608260C260E2
:100C680002614261826123606360A360E3600B609C
:100C78004B608B60CB605DF8044B704741B1102826
:100C88000CBF084A084A136843F00403136070470E
:100C980010280CBF034A044A044B11680B40136028
:100CA800704700BF600000A0800000A0FBFF0F009D
:100CB80041B110280CBF084A084A136843F04003A2
:100CC8001360704710280CBF034A044A044B11688C
:100CD8000B401360704700BF600000A0800000A0B8
:100CE800BFFF0F0010280CBF014B024B586970471B
:100CF800600000A0800000A0054B4FF0FC321820D7
:100D08000021186059609A60DA601A61704700BF64
:100D1800A00000A0F0B490E888008668164AC5686C
:100D28000469416943F0100343EA472343EA463321
:100D3800136095E8C000AB68E8681B0443EA072322
:100D4800334343EA0063936094E86000A368E06873
:100D58001B0443EA06232B4343EA0063D36091E86C
:100D680011008B68C9681B0443EA0423034343EA60
:100D780001631361F0BC7047A00000A030B40169A2
:100D8800C4684269FC2300250560456085602360CE
:100D98006360A360E3600B604B608B60CB6030BC2A
:100DA800136053609360D360704700BF054A20B951
:100DB8001168054B0B4013607047136843F0040338
:100DC80013607047A00000A0FBFF0F0052B110286D
:100DD8001AD0B0F5807F0CBF0E4A0F4A53681943EA
:100DE80051607047102809D0B0F5807F0CBF094AC0
:100DF800094A536823EA010151607047074A53685A
:100E080023EA010151607047044A5368194351604D
:100E1800704700BF800000A0A00000A0600000A0F4
:100E280010280AD0B0F5807F0CBF054B054B5B68D6
:100E38000B4214BF012000207047034B5B68F7E7A3
:100E4800800000A0A00000A0600000A0102809D029
:100E5800B0F5807F0CBF064A064A536823EA0101B1
:100E680051607047044A536823EA01015160704792
:100E7800800000A0A00000A0600000A010280ED0F4
:100E8800B0F5807F0CBF074B074B5B6813EA010086
:100E980004D013EAD10314BF012000207047034B8C
:100EA8005B68F3E7800000A0A00000A0600000A03D
:100EB800102809D0B0F5807F0CBF064A064A53684F
:100EC80023EAD10151607047044A536823EAD101EB
:100ED80051607047800000A0A00000A0600000A042
:100EE8002DE9F0438DB08146002604A80F469846A8
:100EF80014460196149D03F063FFB9F1010F16BF64
:100F08000423ADF80860ADF808300026802302A855
:100F1800ADF80C30ADF80A6003F00CFF3B681BBA63
:100F280006937B681BBA0793BB681BBA0893FB68D8
:100F38001BBA09933B691BBA0A937B691BBA04A8BD
:100F48000B9303F029FF03F057FF012003F05CFF28
:100F5800B8F1000F2FD008340835374654F8080C7C
:100F680003F060FF54F8040C03F05CFF019700E005
:100F780090B1102004F000F8019B01330193019B0C
:100F8800B3F5803FF4D138B10024002003F03CFFD2
:100F980020460DB0BDE8F08303F04AFF45F8080C81
:100FA80003F046FF0836B04545F8040C04F1080480
:100FB80005F10805D2D80124E7E700BF2DE9F0457F
:100FC80091B08246002508A80E461C461746019592
:100FD800DDF8608003F0F4FEBAF1010F18BF0423B6
:100FE8004FF0080218BFADF808300DEB02004FF0C3
:100FF800800308BFADF80850ADF80C30ADF80A20F2
:1010080003F098FE33681BBA0A9373681BBA0B93F4
:10101800B3681BBA0C93F3681BBA0D9333691BBAF8
:101028000E9373691BBA08A80F9303F0B5FE3B68CB
:101038001BBA04937B681BBA04A8059303F0CAFE85
:1010480003F0DAFE012003F0DFFEB8F1000F32D022
:10105800199B0026083403F10805374654F8080C94
:1010680003F0E0FE54F8040C03F0DCFE019700E006
:1010780090B1102003F080FF019B01330193019B85
:10108800B3F5803FF4D138B10024002003F0BCFE52
:10109800204611B0BDE8F08503F0CAFE45F8080CFB
:1010A80003F0C6FE0836B04545F8040C04F1080400
:1010B80005F10805D2D80124E7E700BF02683749DF
:1010C800002310B422F00102212488420260036048
:1010D80043608360C360036144614DD0304B9842E4
:1010E80035D0304B984239D02F4B98423DD02F4BBA
:1010F800984247D02E4B984248D02E4B98421DD04C
:101108002D4B98421ED02D4B984243D02C4B9842E1
:101118001DD02C4B984221D02B4B984225D02B4BDD
:1011280098422FD02A4B984230D02A4B984205D06B
:10113800294B984206D05DF8044B7047274A43F87C
:10114800942CF8E74FF03D5243F8AC2CF3E74FF4FA
:10115800746243F8202C5DF8044B70474FF4741206
:1011680043F8382C5DF8044B70474FF0746243F82D
:10117800502C5DF8044B7047194B5DF8044B3D2229
:101188009A607047174A43F8642CD4E7164A43F824
:101198007C2CD0E73D2243F8082CCCE710600240B5
:1011A800286002404060024058600240706002407F
:1011B80088600240A0600240B860024010640240AB
:1011C800286402404064024058640240706402404F
:1011D80088640240A0640240B864024000003D20D8
:1011E800006002403D000020400F00200B68CA69E3
:1011F800F0B4CE684D698C690F6A33432B4323439F
:101208004E6A8D6A4C6B13433B4333438A6B0768C2
:101218000B4E2B4323433E4013433343CD6A0360B5
:1012280042690B6B0E694C6889682B4322F00702F0
:101238001343436146608460C160F0BC704700BFDF
:101248003F801CF00023036043608360C360036138
:1012580043618361C361036243628362C362036360
:1012680043638363704700BF036819B923F0010320
:101278000360704743F0010303607047036819B9BE
:1012880023F400430360704743F40043036070474E
:10129800036819B923F020030360704743F0200363
:1012A8000360704741607047406880B2704700BF74
:1012B800036822B923F4002303600161704743F4F3
:1012C8000023036001617047036819B923F4802380
:1012D8000360704743F48023036070470AB9C16014
:1012E80070470161704700BF0068C0F3C040704795
:1012F800006800F001007047406900F0380070474E
:101308000B4B0C4A10B40C4CA04294BF1846104624
:101318008B004CBF436803685DF8044B21F0F02153
:1013280021F08211194214BF01200020704700BF2C
:1013380000600240006402400F6402400B060CD5B6
:101348004369AAB143F08003802943610FD0036841
:1013580001F01E01194301607047802907D0002A57
:10136800F5D1036801F01E0123EA0101016070470D
:1013780023F0800380294361F3D1704730B4114BC7
:10138800114D124A21F0F02424F0C314A84298BF4A
:101398001A469CB1006800EAD12000F01E038800BC
:1013A8004CBF5068106821F0F02121F082110840EC
:1013B80002D0181C18BF012030BC7047436903F0E5
:1013C8008003ECE7006002400F64024000640240C2
:1013D80010B4094B094C0A4AA04294BF184610465B
:1013E80011F0005F21F0F02121F0821114BFC160DB
:1013F80081605DF8044B7047006002400F64024052
:1014080000640240FFF7E4BF014B1868000C704706
:10141800002004E0024B1868C0F30B00704700BFBF
:10142800002004E0044A536819B923EA0000506018
:101438007047184350607047002004E0044A9368DE
:1014480019B923EA0000906070471843906070470C
:10145800002004E0044AD36819B923EA0000D060E8
:1014680070471843D0607047002004E008B5012198
:10147800202002F01DF900212020BDE8084002F0DC
:1014880017B900BF0F4A136823F0F00330B4136094
:1014980003688568146841682B4323430B4340293C
:1014A800136007D1136823F480331360C16813688D
:1014B8000B431360034A136843F00403136030BC02
:1014C800704700BF00040650002303604360836038
:1014D800C3607047024A136843F0040313607047FF
:1014E80000040650044B9A6822F01F029A609A681A
:1014F80010439860704700BF00040650014B5860C5
:10150800704700BF00040650024B1868C0F3032060
:10151800704700BF00040650054BDA6802601A697C
:1015280042605A6982609A69C260DB6903617047E8
:1015380000040650024A936843F48073936070472E
:101548000004065009490B6A03608B6843600B6806
:1015580040F8083F002303F13E02013351F82220EE
:1015680040F8042F332BF6D1704700BF0004065013
:101578000D4B026810B41A6242689A6050F8082F3E
:101588001A601A6842F004021C461A60002303F12C
:101598003E02013350F8041F44F82210332BF6D1D1
:1015A8005DF8044B704700BF00040650054A1368F5
:1015B80018B923F008031360704743F00803136059
:1015C800704700BF0004065039B9064A136A23EA77
:1015D800000000F0FF0010627047024B1A6A1043C7
:1015E8001862704700040650044BC2044CBF1B68C5
:1015F8005B6A184214BF012000207047000406509F
:10160800014BC0435862704700040650044A536AAD
:10161800126A1340034214BF01200020704700BF24
:1016280000040650C043024BC0B25862704700BF66
:101638000004065008B501214FF0005002F050F8A0
:1016480000214FF00050BDE8084002F049B800BF43
:10165800F0B491E888008E68084CCD6822683B4356
:10166800334340F6FE712B43814022EA010203FA1C
:1016780000F010432060F0BC704700BF00740040C9
:101688000023036043608360C360704741B9084921
:1016980001220B6802FA00F023EA00000860704794
:1016A800034A0123116803FA00F0084310607047E9
:1016B8000074004049B9094900094B68012202FA3F
:1016C80000F023EA000048607047044A00095168A6
:1016D800012303FA00F0084350607047007400408B
:1016E800054A536818B923F003035360704743F061
:1016F80003035360704700BF0074004082B00022AB
:10170800054B01920193019B083318440190019BFA
:10171800196002B0704700BF0074004082B0002218
:10172800054B01920193019B143318440190019BCE
:10173800196002B0704700BF007400400828044BCD
:101748000CBF42EA012242EA0142C250704700BF80
:101758002074004082B00022064B01920193019B45
:101768002C3303EB90000190019B186880B202B003
:10177800704700BF0074004049B909494FF48052CE
:101788000B6802FA00F023EA000008607047044A78
:101798004FF48053116803FA00F008431060704753
:1017A8000074004032B9064A1368814023EA0101F7
:1017B80011607047024B1A688140114319607047E5
:1017C80000740040FFF7EEBF034B5B6B814019428A
:1017D80014BF01200020704700740040014B814075
:1017E8005963704700740040054B1A685B6B814071
:1017F80011EA030003D00A4214BF012000207047F9
:1018080000740040014B81405963704700740040E8
:1018180008B50D4B98424FF001010AD04FF0806097
:1018280001F05EFF00214FF08060BDE8084001F044
:1018380057BF4FF0007001F053FF00214FF00070C8
:10184800BDE8084001F04CBF00640040036823F085
:1018580002030360036843F0010303604368DB0786
:1018680007D44FF6FF7301E0013B02D04268D2076C
:10187800FAD5436813F001035AD08B790A88012BF3
:1018880003680CBF43F0800323F0800370B4036047
:10189800CB79012B03680CBF43F0400323F04003CE
:1018A80003600B7A012B03680CBF43F0200323F07D
:1018B800200303604B7A012B03680CBF43F010032D
:1018C80023F0100303608B7A012B03680CBF43F0ED
:1018D800080323F008030360CB7A012B03680CBFCD
:1018E80043F0040323F004030360CB788E780D796A
:1018F8004C791B0643EA867343EA054343EA0453DB
:10190800013A1343C361036823F00103036043688A
:10191800D90707D54FF6FF7301E0013B02D04268B3
:10192800D207FAD44068C04300F0010070BC704789
:1019380018467047364A837AD2F8001241F00101FE
:10194800F0B5C2F800120121D2F81C529940CC43DC
:101958002540C2F81C52057B002D47D1DB00D2F888
:101968000C72B0F806C04688B0F804E0058803F1A8
:10197800804303F5C843274046EA0C4645EA0E452E
:10198800C2F80C72C3F84062C3F84452C37A204AC2
:1019980033BBD2F804322340C2F804320389B3B906
:1019A8001B4BD3F814221440C3F81442437B012B79
:1019B80005D1174BD3F81C221143C3F81C12144A43
:1019C800D2F8003223F00103C2F80032F0BD012B37
:1019D800ECD10F4AD2F814320B43C2F81432E5E7BF
:1019E800D2F804320B43C2F80432D7E7012DCDD127
:1019F800DB00D2F80C72B0F800C04688B0F804E0FA
:101A0800C58803F1804303F5C8430F43B4E700BF1B
:101A180000640040002310B4022103240122047151
:101A2800417102808371C371037243728372C372FE
:101A38008370C3705DF8044B704700BF0D4BD3F83B
:101A4800002242F00102C3F80022D3F8002222F457
:101A58007C5222F00E02C3F80022D3F8002242EA98
:101A68000020C3F80002D3F8002222F00102C3F8D4
:101A78000022704700640040036819B923F48033DA
:101A88000360704743F48033036070470368A9B963
:101A980023F080030360D0F8843123F48073C0F806
:101AA8008431D0F8943123F48073C0F89431D0F89D
:101AB800A43123F48073C0F8A431704743F0800345
:101AC8000360D0F8843143F48073C0F88431D0F8CF
:101AD800943143F48073C0F89431D0F8A43143F4BE
:101AE8008073C0F8A43170478368F0B40546580184
:101AF80005D4AB681A0142D50122104601E0002244
:101B080010461201AB18D3F8804104F00104C3F861
:101B180080410C7A4CB34E684F7A44EAC604D3F835
:101B280080613C433443C3F880418C7A04F00F044D
:101B38008C72D3F8846126F00F06C3F88461D3F859
:101B480084613443C3F884412A44D1F80B40C2F875
:101B58008841D1F80F10C2F88C11D3F8802142F0D7
:101B68000102C3F88021F0BC70470F684C7AD3F8A3
:101B7800806144EA47543443C3F88041D5E7AB68F1
:101B8800DB0002D502221046BBE70420F0BC7047F8
:101B980001291AD015D302290FD183680D4A1340A1
:101BA8000D4A934206D007D90C4A934202D0094AFB
:101BB800934204D1012070470BB9022070470020DE
:101BC80070478368044A1340EAE78268034B13406E
:101BD800E6E700BF0000031003000004000300084C
:101BE80001290DD007D3022904D1836843F40003E7
:101BF800836070477047836843F080038360704751
:101C0800836843F400438360704700BF00EB01130F
:101C180010B4D3F8B04104F004041472CCBBD3F868
:101C2800B041640D1460D3F8B04104F0020454725A
:101C3800D3F8B44104F00F049472D3F8B44100EB24
:101C48000113240AD474D3F8B841D472D3F8B84134
:101C5800240A1473D3F8B841240C5473D3F8B84148
:101C6800240E9473D3F8BC41D473D3F8BC41240A2E
:101C78001474D3F8BC41240C5474D3F8BC311B0E33
:101C8800937459B103695DF8044B43F02003036171
:101C98007047D3F8B041E4085460C4E7C3685DF8FE
:101CA800044B43F02003C360704700BF21B10369B0
:101CB80043F0200303617047C36843F02003C36007
:101CC800704700BF31B1012906BF006900F0030069
:101CD80000207047C06800F003007047E9B9036846
:101CE80023F0030343F001030360436803F0030395
:101CF800012B09D04FF6FF7201E0013A04D0436886
:101D080003F00303012BF8D1406800F00300A0F1B1
:101D18000100B0FA80F040097047012903D0022978
:101D280017D000207047036823F00303036043685B
:101D3800990707D04FF6FF7301E0013B02D04268D4
:101D48009207FAD1436813F0030F0CBF012000205B
:101D58007047036823F0030343F0020303604368FA
:101D680003F00303022B09D04FF6FF7201E0013A9A
:101D780004D0436803F00303022BF8D1406800F055
:101D88000300A0F10200B0FA80F04009704700BFDC
:101D9800036823F0030343F002030360406800F084
:101DA8000300A0F10200B0FA80F04009704700BFBC
:101DB800036823F0020303604368990707D54FF6C9
:101DC800FF7301E0013B02D042689207FAD44068F1
:101DD80080F00200C0F34000704700BF806900F047
:101DE800700070478069000E704700BF8069C0F3BB
:101DF8000740704743691AB923EA010141617047F6
:101E080019434161704700BF11F4700F07D083690F
:101E1800C3F313030B4214BF012000207047CB010A
:101E280007D54368C3F313030B4214BF01200020F6
:101E380070470A0107D58368C3F313030B4214BF25
:101E48000120002070478B014CBFC3680369C3F3AE
:101E580013030B4214BF0120002070470A4B99421C
:101E68000CD08A01C1F3130306D44A0109D40A012C
:101E78004CBF836043607047C36070470023836131
:101E880070470361704700BF7000F03043690B4032
:101E98000FD0402965D00ED9B1F5006F5AD017D8A8
:101EA800B1F5007F4ED0B1F5806F3FD0B1F5807F9E
:101EB80025D000207047042948D016D910292FD0E2
:101EC800202929D00829F4D1C068C0F30010704730
:101ED800B1F5803F32D0B1F5003F2BD0B1F5004FBE
:101EE800E7D14068C0F38000704701290BD0022970
:101EF800DFD1C06810F0030018BF01207047806967
:101F080000F001007047806800F0013020F0807018
:101F1800003018BF012070470069C0F3C000704747
:101F2800006910F0030018BF012070478069C0F3F2
:101F3800800070474068C0F3001070474068C0F3E5
:101F4800C00070478069C0F340007047C068C0F3A4
:101F5800C0007047836913F0700F14BF0120002080
:101F680070470069C0F30010704700BFB1F5807F6B
:101F78001ED00DD9B1F5006F24D013D9B1F5803F2B
:101F880025D0B1F5003F2ED0B1F5004F1AD07047DB
:101F980008291FD00FD9202922D0402927D1102362
:101FA80003617047B1F5007F02D0B1F5806F1DD194
:101FB80004234360704701290FD0042918D108234E
:101FC800C36070470022042382614360704708237E
:101FD800436070471023C3607047064B83607047A7
:101FE80008230361704710234360704770477047A8
:101FF800704700BF0101010000217F22FF2380E814
:102008000E007047044B20B9CA21532259625A6204
:102018007047FF225A6270470028004082B00023B0
:102028000E490193CB685B0614D44FF0FF33CB60A5
:1020380000E04AB9CA68019B01330193019BB3F5DB
:10204800803F02F04002F4D1044BD868C0F38010FE
:1020580002B07047012002B0704700BF002800405E
:1020680038B5104CCA225323626263620546FFF7F3
:10207800D5FF98B1A36823F04003A360A3682A683A
:102088001343A360AB68236123696A6843EA024388
:102098002361E36823F08003E3600120014BFF2202
:1020A8005A6238BD00280040024AD36823F08003F2
:1020B800D3607047002800400F4982B053230020A6
:1020C800CA2201904A624B62CB6823F0A003CB601E
:1020D80000E04AB9CA68019B01330193019BB3F53B
:1020E800003F02F02002F4D1034BD868FF22C0F36E
:1020F80040105A6202B070470028004030B51E4CAC
:1021080083B00025CA225323019562626362FFF7F8
:1021180085FFC0B142F2011325606360A36803F034
:102128000703A360214600E04AB9CA68019B01334E
:102138000193019BB3F5803F02F00402F4D10E4BEA
:10214800DA68520705D400200B4BFF225A6203B00D
:1021580030BD00224FF6FF7008499C689A605861AC
:1021680019619A61DA611A62DA601A64FFF7A4FFEA
:10217800003018BF0120E7E700280040FF007F007B
:1021880038B50E4CCA225323626263620546FFF7D4
:1021980045FF50B1A36865B923F01003A360074A4F
:1021A800D36823F08003D3600120044BFF225A62D6
:1021B80038BD43F01003A360F1E700BF00280040DA
:1021C8000A4B5322CA2159625A629A6830B902F0FE
:1021D800DF029A60054BFF225A62704742F02002E4
:1021E8009A60024BFF225A62704700BF00280040E5
:1021F80038B5344B9C68002837D114F040045DD1C1
:10220800CC700A78092A98BF002008D900230A3A16
:10221800D2B20133092ADBB2F9D81B01D8B24B7804
:102228000243092B4FEA02424FF0000007D90A3B4C
:10223800DBB20130092BC0B2F9D80001C0B28978ED
:10224800034309294FEA03234FF0000007D90A394D
:10225800C9B201300929C0B2F9D80001C0B214438B
:102268002343014343EA01040BE014F0400422D164
:10227800CC704A7808788B78110241EA00411943FA
:102288000C43104DCA2253236A626B62FFF7C6FEE5
:1022980068B104F07F3424F0FE442C60EB6823F02E
:1022A8008003EB60FFF708FF003018BF0120054BE3
:1022B800FF225A6238BDCC782404DAE7CC782404AB
:1022C8009FE700BF002800400023C37003704370DD
:1022D80083707047164B1B6803F07F3323F0FE436F
:1022E8001A0CF0B5C3F3062702F0400EDBB202F079
:1022F8003F0681F803E00E704F708B70B8B93D0946
:102308001C09360906EB860605EB850504EB8404F3
:1023180002F00F0207F00F0703F00F0302EB46026B
:1023280007EB450503EB44040A704D708C70F0BD53
:1023380000280040014B986A5B68704700280040FD
:1023480038B500283AD14A78D30604D522F01002CD
:102358000A32D2B24A70CB78092B4FF0000007D965
:102368000A3BDBB20130092BC0B2F9D80001C0B278
:102378000343092A4FEA034344D900200A3AD2B258
:102388000130092AC0B2F9D80001C4B288782243C2
:1023980009284FEA02224FF0000407D90A38C0B2D0
:1023A80001340928E4B2F9D82401E4B2097843EAEF
:1023B80041331A43204342EA000409E04878CB78C5
:1023C8008A780C78000240EA0340104340EA44341B
:1023D8000D4DCA2253236A626B62FFF71FFE68B174
:1023E80024F07F4424F0C0046C60EB6823F0800381
:1023F800EB60FFF761FE003018BF0120024BFF229F
:102408005A6238BD0024C1E7002800400123002299
:10241800C270037083704370704700BF164B5B68CF
:1024280023F07F4323F0C003F0B4C3F30725DEB2E3
:10243800C3F3423705F01F021B0C0F704A70CB70B4
:102448008E70B8B9120934091809970004EB84048E
:1024580005F00F0506F00F063A4400EB800003F084
:102468000F0306EB440405EB420203EB40038C70B8
:102478004A70CB70F0BC704700280040F0B53F4B65
:1024880000284DD19E6816F0400671D1D670137899
:10249800092B98BF002408D900200A3BDBB2013081
:1024A800092BC0B2F9D80001C4B2507823430928D7
:1024B8004FEA03434FF0000407D90A38C0B2013489
:1024C8000928E4B2F9D82401E4B295782043092D0B
:1024D8004FEA00244FD900200A3DEDB20130092D02
:1024E800C0B2F9D80001C7B2107B092845EA070530
:1024F8004FF0000707D90A38C0B201370928FFB2E0
:10250800F9D83F01FFB2D2F808E052684EEA020259
:10251800164333431C430743254345EA076715E041
:102528009D6815F0400520D1D5709368D2F804E075
:10253800977816785478107B43EA0E031F4347EACE
:10254800064747EA042747EA00672F430B4B532205
:10255800B1F5807F4FF0CA0058625A620CBFDF6144
:102568001F62064BFF225A62F0BDD7783D04DCE7B4
:10257800D67836048BE70027B6E700BF002800406E
:10258800002301220273C370037043708370836059
:1025980043607047254BB1F5807F0CBFDB691B6A30
:1025A8002DE9F047C3F30741C3F3072EDFB21E0E30
:1025B80003F0804901F03F0501F0400A0EF07F0466
:1025C80007F07F0806F03F0C03F08033157082F89F
:1025D80003A0547082F8028082F80CC0C2F80890F8
:1025E800536008BB2D0924094FEA18104FEA1C1341
:1025F80005EB850504EB840400EB800003EB830303
:1026080001F00F010EF00F0E07F00F0706F00F068E
:1026180001EB45010EEB440407EB400006EB4303D6
:102628001170547090701373BDE8F0870028004053
:1026380030B4154B82B053220025CA2401955C6240
:102648005A629A68E1B922EA00029A60000A1946B9
:1026580000E04AB9CA68019B01330193019BB3F5B5
:10266800803F02EA0002F4D1074BDB68034214BF43
:1026780001200020044BFF225A6202B030BC704790
:10268800104398600120F5E70028004030B4084B5B
:102698000A43CA255324B0F5807F5D625C620CBF93
:1026A8005A649A64024BFF225A6230BC704700BFDA
:1026B80000280040044BB0F5807F0CBF586C986C24
:1026C800C0F30E00704700BF00280040074BCA2126
:1026D800532259625A629A6822F007029A609A68ED
:1026E800FF21104398605962704700BF00280040DE
:1026F800054B10B45321CA24FF225C6259625DF86D
:10270800044B58615A62704700280040014B5869D1
:1027180080B270470028004010B4144983B0532396
:102728000024CA2201944A624B628B68C8B923F418
:1027380080638B6000E04AB9CA68019B013301934A
:10274800019BB3F5803F02F00402F4D1074BD8682F
:10275800C0F38000054BFF225A6203B05DF8044BBA
:10276800704743F480638B600120F3E70028004042
:10277800094B10B45322CA245C625A629A685DF805
:10278800044B22F480229A609A6811430143FF2285
:1027980099605A62704700BF00280040024B986851
:1027A80000F48020704700BF00280040094B10B497
:1027B8005322CA245C625A629A685DF8044B22F478
:1027C800E0029A609A6811430143FF2299605A62B5
:1027D800704700BF0028004070B50A4CCA22532336
:1027E8006262636205460E46FFF718FC30B1354356
:1027F800A561E36823F08003E3600120014BFF2219
:102808005A6270BD0028004038B50E4CCA225323C6
:10281800626263620546FFF701FC50B1A36865B9BF
:1028280023F08003A360074AD36823F08003D360B2
:102838000120044BFF225A6238BD43F08003A36095
:10284800F1E700BF002800400A4B5322CA21596211
:102858005A629A6830B922F400029A60054BFF2246
:102868005A62704742F400029A60024BFF225A6291
:10287800704700BF00280040074BCA215322596205
:102888005A629A6822F400229A609A68FF211043DB
:1028980098605962704700BF0028004030B4114D5D
:1028A800CA2453236C626B62EB68DC030AD5EB68BD
:1028B800DB0307D54FF4003301E0013B02D0EC689D
:1028C800E403FAD4074BDC68E40308D41143084353
:1028D800D8630120034BFF225A6230BC70470020A6
:1028E800F8E700BF002800400B4B9B6823F4006307
:1028F80010B423F0080359B90343074ACA245320E4
:10290800FF21546250625DF8044B93605162704736
:1029180043F400630343F0E7002800402DE9F04F3B
:10292800314C236B646B03F07F3324F07F4423F036
:10293800FE4324F0C00483B01D0CC3F30629C4F37E
:10294800072CDBB28B705FFA84F805F0400B05F0BA
:102958003F0E01931E46C4F342340CF01F0A4FF099
:10296800000381F803B081F800E081F80190D3708A
:1029780082F801A0147082F8028088BB4F464FEAA3
:102988001A1A019B4FEA181B4FEA1E1E3F09360907
:102998004FEA8A000EEB8E0E07EB870706EB8606DA
:1029A8000BEB8B0B05F00F0509F00F0903F00F0374
:1029B8000CF00F0C08F00F08824405EB4E0E09EBE3
:1029C800470703EB460608EB4B0B0CEB4A0A81F86A
:1029D80000E04F708E7082F802B0147082F801A087
:1029E80003B0BDE8F08F00BF00280040014B986B92
:1029F800704700BF00280040054A136C19B143EA2C
:102A080040001064704723EA40001064704700BF1C
:102A180000280040044A136C19B923EA0000106426
:102A2800704718431064704700280040044B1A6C24
:102A380022F4C0521A641A6C10431864704700BF1D
:102A480000280040044B1A6C22F4E0621A641A6CE5
:102A580010431864704700BF00280040044B1A6CEC
:102A680022F4C0421A641A6C10431864704700BFFD
:102A780000280040054A136C18B923F0800313643A
:102A8800704743F080031364704700BF002800407C
:102A9800054A136C18B943F400431364704723F4D0
:102AA80000431364704700BF0028004082B0002232
:102AB800054B01920193019B03EB80000190019B60
:102AC800196002B0704700BF5028004082B0002251
:102AD800054B01920193019B03EB80000190019B40
:102AE800186802B0704700BF50280040044B1A6CA9
:102AF80022F480321A641A6C10431864704700BFBD
:102B080000280040044B1A6C22F400321A641A6C34
:102B180010431864704700BF00280040044B1A6C2B
:102B280022F480221A641A6C10431864704700BF9C
:102B38000028004010B5184CCA2253236262636211
:102B4800E3681A070AD5E3681B0707D54FF48053D3
:102B580001E0013B02D0E2681207FAD40E4AD368BA
:102B680013F0080313D19468E40604D518460A4BF9
:102B7800FF225A6210BD0143D162FFF79DFA064B4E
:102B880000304FF0FF0218BF01205A6210BD024BFF
:102B9800FF2200205A6210BD00280040114B10B4DB
:102BA8005322CA245C625A6289B99A6820F00401E7
:102BB80022EA01029A601A6C00F0040022EA00007E
:102BC8001864084B5DF8044BFF225A6270479968F5
:102BD80020F004020A439A601A6C00F004001043C3
:102BE8001864EEE700280040044BDB6843F6777270
:102BF8001340034214BF0120002070470028004002
:102C0800054AD36880B240F0800003F0800363EA8D
:102C18000003D360704700BF0028004009490B6CCF
:102C28008A68C96803F0040303EAD03302401343F7
:102C380006D089B211EA101314BF01200020704792
:102C48001846704700280040054AD368C0F30F10A3
:102C580040F0800003F0800363EA0003D36070470C
:102C68000028004008B501214FF0805000F038FDE1
:102C780000214FF08050BDE8084000F031BD00BF92
:102C8800014B1860704700BF20000E42034A1368CA
:102C980023F0E00318431060704700BF0070004045
:102CA800014B1860704700BF10000E42014B1860BE
:102CB800704700BFA0000E42014B1860704700BF6C
:102CC800A4000E42054A136818B143F48043136008
:102CD800704723F480431360704700BF00700040C2
:102CE800014B1860704700BF24000E4210B40C4C12
:102CF8000C4A236823F00303184320601369012951
:102D080043F00403136108D020BF064A5DF8044B62
:102D1800136923F004031361704730BFF5E700BF60
:102D28000070004000ED00E0074B08491A6842F0C7
:102D380004021A601A6842F002021A600B6943F032
:102D480004030B6130BF70470070004000ED00E0E5
:102D5800034B5B68034214BF01200020704700BF8B
:102D680000700040024A136843EA80001060704710
:102D78000070004008B5174B984212D0164B984285
:102D88001BD0164B984200D008BD01214FF400001B
:102D980000F0A6FC00214FF40000BDE8084000F058
:102DA8009FBC01214FF4001000F09AFC00214FF461
:102DB8000010BDE8084000F093BC01214FF48000EA
:102DC80000F08EFC00214FF48000BDE8084000F0C0
:102DD80087BC00BF0054004000580040005C004021
:102DE800F0B5044685B068460E46A58800F0A6FBF7
:102DF8000298314A3368DFF8C8E0A2FB001225F0D8
:102E08003F05910C2D042D0C8FB23D43A5802288DF
:102E180022F001021204120C7345228023D85B00B1
:102E2800B0FBF3F39BB20137042B38BF042327848C
:102E3800A3832188B0887789B289358989B241F01E
:102E480001012180238823F4816323F002031B04FA
:102E580040EA07011B0C0B432A439BB292B2238022
:102E6800228105B0F0BDF5884BF6FF7295421DD062
:102E780003EB830303EB8303B0FBF3F39BB243F44D
:102E88008043C3F30B020AB943F001034FF496726F
:102E98000A4802FB01F280FB0201D217C2EBA11221
:102EA800013292B243F400432284C1E703EB4303A7
:102EB800B0FBF3F39BB2E4E783DE1B43D34D621010
:102EC800A0860100002310B44BF6FF7141F288344C
:102ED8004FF480420460C1808281838003814381F2
:102EE8005DF8044B704700BF038829B923F001033C
:102EF8001B041B0C038070479BB243F00103038043
:102F0800704700BF038829B923F480731B041B0C86
:102F1800038070479BB243F480730380704700BFFF
:102F2800038829B923F400731B041B0C0380704722
:102F38009BB243F400730380704700BF22B901F0CD
:102F4800FE0189B20182704741F0010189B2018214
:102F5800704700BF038829B923F480631B041B0C46
:102F6800038070479BB243F480630380704700BFBF
:102F780083899BB201F0FE0123F0FE030B4383819A
:102F8800704700BF838929B923F001031B041B0C78
:102F9800838170479BB243F001038381704700BF70
:102FA800038829B923F040031B041B0C03807047D6
:102FB8009BB243F040030380704700BF038819B9F0
:102FC800C3F30E03038070476FEA43436FEA53432A
:102FD8009BB20380704700BF038829B123F08003A8
:102FE8001B041B0C038070479BB243F080030380D3
:102FF800704700BFB1F5804F838B05D023F4804321
:103008001B041B0C838370479BB243F48043838368
:10301800704700BFB1F5005F038805D023F4005363
:103028001B041B0C038070479BB243F400530380BE
:10303800704700BF038829B923F010031B041B0C39
:10304800038070479BB243F010030380704700BFB2
:1030580001827047008AC0B2704700BF038829B94F
:1030680023F480531B041B0C038070479BB243F46A
:1030780080530380704700BFB1F5006F038805D007
:1030880023F400631B041B0C038070479BB243F4BA
:1030980000630380704700BFFFF7EEBF038829B9BC
:1030A80023F020031B041B0C038070479BB243F0E2
:1030B80020030380704700BF008BC0F307207047D0
:1030C800838829B923F400631B041B0C8380704791
:1030D8009BB243F400638380704700BF838829B99B
:1030E80023F480531B041B0C838070479BB243F46A
:1030F80080538380704700BF82B000230193019002
:10310800019B19440191019B188880B202B0704755
:1031180083889BB21AB923EA010181807047194359
:1031280081807047838A008B9BB243EA004321F079
:103138007F401840401AB0FA80F04009704700BF3D
:10314800838A028B98B240EA024020F07F407047A1
:1031580082B000230A0F0093019301900092009B14
:1031680021F07F4153B1019B14330193019B1B68EC
:10317800194214BF0120002002B07047019B183388
:10318800090C0193F2E700BFC94389B281827047F5
:103198008388808A80B208409BB206D003F4E0633B
:1031A80013EA114314BF012000207047C94389B2B4
:1031B80081827047F0B501F003038DB00024DB0075
:1031C800ADF806400D46074602941646ADF806309F
:1031D800FEF74CF98022202303A804940392059358
:1031E800FEF750F9BDF8060080B2FEF77BF93C46C1
:1031F80035B154F8040BFEF781F9E31BAB42F8D361
:10320800FEF798F900E068B10820FEF7EDF9029B97
:1032180001330293029BB3F5803FF4D110B1002033
:103228000DB0F0BD07A8FEF777F9079B1BBA33600E
:10323800089B1BBA7360099B1BBAB3600A9B1BBA35
:103248000120F3600DB0F0BD2DE9F0410D468CB0C2
:1032580003F003011F4605F003030024C900DB0047
:10326800ADF804409046ADF8064006460294ADF825
:103278000410ADF80630FEF7F9F84022802120232B
:10328800954203910492059325D94FF4803303A8FE
:103298000693FEF7F7F8BDF8060080B2FEF722F9AC
:1032A800344654F8040BFEF729F9A31BAB42F8D3B4
:1032B800FEF740F900E0D0B10820FEF795F9029B2F
:1032C80001330293029BB3F5803FF4D178B100201B
:1032D8000CB0BDE8F08103A80694FEF7D3F8BDF85A
:1032E800060080B2FEF7FEF8002DD9D1E0E7BDF860
:1032F800040080B2FEF7F6F844463FB154F8040BD8
:10330800FEF7FCF8A4EB0803BB42F7D3FEF712F96B
:103318000023029300E058B10820FEF765F9029BEC
:1033280001330293029BB3F5803FF4D10028CED13C
:10333800BDF8060080B2FEF7D5F8344635B154F82A
:10334800040BFEF7DBF8A31B9D42F8D8FEF7F2F852
:103358000023029300E058B10820FEF745F9029BCC
:1033680001330293029BB3F5803FF4D10028AED11C
:1033780007A8FEF7D1F8079B1BBA129A1360089B9F
:103388001BBA5360099B1BBA93600A9B1BBA0120A6
:10339800D3609DE70A4B0B481A68002142F00102EE
:1033A8001A6099601A6822F0847222F480321A60D6
:1033B80058601A6822F480221A60D960704700BFEA
:1033C8000038024010300024024B00221A70187096
:1033D800704700BF0238024082B000230A4A0193B6
:1033E80002E0B3F5A06F08D0136813F4003F019B07
:1033F80003F101030193019BF3D0034B1868C0F359
:10340800404002B0704700BF00380240034A1368CA
:1034180023F0F80343EAC000106070470038024008
:10342800014B1860704700BF00004742064B00225E
:1034380001281A701A7005D0042802D105221A70C2
:10344800704770471870704770380240014B186019
:10345800704700BF800E474230B4029C064D40EAD8
:1034680004605B080843013B40EA821040EA0340DD
:10347800686030BC704700BF00380240014B1860DC
:10348800704700BF600047420907034B41EA8011BB
:10349800C3F88410704700BF00380240014B186021
:1034A800704700BF68004742014B1860704700BF73
:1034B8004C004742034A936823F0EC6319430143E5
:1034C8009160704700380240034A936823F07843BC
:1034D800194301439160704700380240034A9368DA
:1034E80023F0030318439060704700BF0038024080
:1034F800024B986800F00C00704700BF003802408B
:10350800034A936823F0F00318439060704700BFA4
:1035180000380240034A936823F4E053184390604C
:10352800704700BF00380240034A936823F46043A1
:1035380043EAC00090607047003802401F4A936811
:1035480003F00C03042B10B41BD0082B1CD01C4B0D
:1035580003601A4A1B499468C4F303140C5DE340E2
:1035680043609468C4F382240C5D23FA04F48460F5
:1035780092685DF8044BC2F342328A5CD340C36060
:103588007047114B0360E4E754685168526863025E
:10359800C2F3881201F03F014CBF0B4B084BB3FB41
:1035A800F1F303FB02F3054A5268C2F30142013208
:1035B8005200B3FBF2F30360CBE700BF00380240D0
:1035C8000024F4001800002000127A0000F4407370
:1035D800B3F5407F09D108498A6820F0704322F486
:1035E800F81223F4407313438B60034B1A6FC0F334
:1035F8000B0010431867704700380240014B1860F1
:10360800704700BF3C0E4742014B1860704700BF2F
:10361800400E4742014B1860704700BF5C014742AB
:10362800044A136B19B923EA000010637047184362
:103638001063704700380240044A536B19B923EAF3
:1036480000005063704718435063704700380240C9
:10365800044A936B19B923EA000090637047184332
:103668009063704700380240044A136C19B923EA82
:103678000000106470471843106470470038024017
:10368800044A536C19B923EA000050647047184380
:103698005064704700380240044A136919B923EA94
:1036A80000001061704718431061704700380240ED
:1036B800044A536919B923EA000050617047184356
:1036C8005061704700380240044A936919B923EAE7
:1036D80000009061704718439061704700380240BD
:1036E800044A136A19B923EA0000106270471843A4
:1036F8001062704700380240044A536A19B923EA35
:10370800000050627047184350627047003802400A
:10371800044A136D19B923EA00001065704718436D
:103728001065704700380240044A536D19B923EAFE
:1037380000005065704718435065704700380240D4
:10374800044A936D19B923EA00009065704718433D
:103758009065704700380240044A136E19B923EA8D
:103768000000106670471843106670470038024022
:10377800044A536E19B923EA00005066704718438B
:103788005066704700380240044A137819B923EA92
:103798000000107070471843107070470D380240D1
:1037A8004309012B0BD0022B094B0CBF1B6F5B6F1E
:1037B80000F01F0023FA00F000F001007047044BEE
:1037C8001B6800F01F0023FA00F000F001007047AA
:1037D80000380240024A536F43F0807353677047C2
:1037E80000380240034BDB68184214BF0120002058
:1037F800704700BF00380240014B1870704700BF87
:103808000E380240014B1860704700BF003000407E
:10381800014B5860704700BF00300040014B986072
:10382800704700BF00300040024B4AF6AA221A60D7
:10383800704700BF00300040024B4CF6CC421A6083
:10384800704700BF00300040034BDB68184214BFCC
:1038580001200020704700BF00300040014BC0B27B
:1038680018707047003C0240054A136818B923F4E1
:1038780080731360704743F480731360704700BF10
:10388800003C0240054A136818B923F4007313601A
:10389800704743F400731360704700BF003C024058
:1038A800054A136818B923F480631360704743F41A
:1038B80080631360704700BF003C0240024A1368EF
:1038C80043F4006313607047003C0240024A1368E7
:1038D80043F4805313607047003C0240044B1A695C
:1038E800002A03DA0349044A59605A60704700BF46
:1038F800003C024023016745AB89EFCD024A1369BA
:1039080043F0004313617047003C0240044B5A697E
:10391800D20703D50349044A99609A60704700BFEB
:10392800003C02403B2A19087F6E5D4C024A5369ED
:1039380043F0010353617047003C0240044B1A787E
:1039480002F0F3021A701A7810431870704700BF1B
:10395800143C0240024B5869C0F34710704700BF3F
:10396800003C0240014B188880B27047163C024068
:10397800024B1878AA3818BF01207047153C02403E
:10398800024B187800F00C00704700BF143C02404E
:10399800044A136919B923EA0000106170471843F3
:1039A80010617047003C0240034BDB68034214BFC0
:1039B80001200020704700BF003C0240014BD86046
:1039C800704700BF003C02400B4BDA68D1030AD4B1
:1039D800DA68D20601D505207047DA6812F0EF0FD1
:1039E80003D00620704701207047DB6813F0020FF0
:1039F80014BF072008207047003C024000B583B080
:103A080008238DF80730FFF7DFFF8DF807009DF8D2
:103A18000730012BF7D09DF80700C0B203B05DF85E
:103A280004FB00BF70B5064659B301292FD00229FF
:103A38000CBF4FF400744FF44074FFF7DFFF082801
:103A480024D1144D2B6923F440732B612969214338
:103A580029612B6923F0F8032B612B6943F00203DA
:103A68001E432E612B6943F480332B61FFF7C6FF99
:103A78002B6923F002032B612B6923F0F8032B61D8
:103A880070BD0C46FFF7BAFF0828DAD070BD4FF4B6
:103A98008074F7E7003C024038B50446FFF7AEFFF4
:103AA8003CB1012C08D0022C0CBF4FF400744FF429
:103AB8004074082804D038BD08284FF48074FAD11F
:103AC8000B4D2B6923F440732B612B691C432C612C
:103AD8002B6943F004032B612B6943F480332B617A
:103AE800FFF78CFF2B6923F004032B6138BD00BF5F
:103AF800003C0240F8B5054616461F46FFF77EFF14
:103B0800082800D0F8BD0B4C236923F440732361C7
:103B1800236943F440732361236943F0010323615C
:103B2800C5E90067FFF76AFF236923F001032361F2
:103B3800F8BD00BF003C024070B505460E46FFF7D1
:103B48005DFF082800D070BD0A4C236923F4407338
:103B58002361236943F400732361236943F001035C
:103B680023612E60FFF74AFF236923F001032361D5
:103B780070BD00BF003C024070B505460E46FFF719
:103B88003DFF082800D070BD0A4C236923F4407318
:103B98002361236943F480732361236943F001039C
:103BA80023612E80FFF72AFF236923F00103236195
:103BB80070BD00BF003C024070B505460E46FFF7D9
:103BC8001DFF082800D070BD094C236923F44073F9
:103BD800236123692361236943F0010323612E7064
:103BE800FFF70CFF236923F00103236170BD00BFB9
:103BF800003C024038B504460D46FFF7FFFE082892
:103C080000D038BD2DB9064B1A881443A4B21C80C5
:103C180038BD034A13889BB223EA0404148038BDD4
:103C2800163C024010B50446FFF7E8FE082804BF1A
:103C3800014B1C7010BD00BF153C024070B5064614
:103C48000C461546FFF7DAFE082807D1044A137810
:103C580003F00F031E4335432C43147070BD00BF9F
:103C6800143C0240034A137843F002031370FFF731
:103C7800C5BE00BF143C024040F0BF60024B40F498
:103C88000030D860704700BF00ED00E0C3785BB932
:103C9800037816485A09203203F01F03012101FA5C
:103CA80003F340F822307047114A70B4D268437861
:103CB800867801780D48D243C2F30222C2F1040586
:103CC800EDB20F24AB4044FA02F23240DBB21343A8
:103CD80044181B0101F01F0501224909DBB2AA4063
:103CE80084F8003370BC40F82120704700E100E000
:103CF80000ED00E021F0604121F07F01014B01431C
:103D08009960704700ED00E029B9054A136923EA74
:103D1800000010617047024B1A6910431861704720
:103D280000ED00E0044A136804280CBF43F00403C4
:103D380023F004031360704710E000E008B5012188
:103D48004FF40060FFF7D8FC00214FF40060BDE895
:103D58000840FFF7D1BC00BFF0B40A4C8268616824
:103D68004368C76806680569007D21F4FD4121F0B4
:103D78007F0113430B433B4333432B4303436360AC
:103D8800F0BC7047002C01400023037503604360BA
:103D98008360C36003617047014B1860704700BFC0
:103DA800A0802542014B1860704700BF002C0140DD
:103DB800024B186800F00300704700BF002C014058
:103DC8000949036830B48B60CA6885684368C46869
:103DD800006922F4FF622B4322F0070213432343B6
:103DE8000343CB6030BC7047002C014000230360C4
:103DF80043608360C3600361704700BF014B18696B
:103E0800C0B27047002C0140044B82B0034400222A
:103E180001920193019B186802B07047142C01406D
:103E2800094A036830B4536243689362C56883687B
:103E3800D16A046940692B4321F0F7010B432343FE
:103E48000343D36230BC7047002C014000234FF07D
:103E5800FF3280E80C008360C360036143617047F0
:103E6800014B186B704700BF002C0140014BD3F881
:103E780080007047002C0140014BC3F88000704758
:103E8800002C0140014B986C704700BF002C01408A
:103E9800014B1860704700BFA0852542014B186090
:103EA800704700BFA4852542014B1860704700BFCA
:103EB800A8852542014B1860704700BFAC85254294
:103EC800014B1860704700BFAC812542014B186058
:103ED800704700BFB0812542C043024B00F001008B
:103EE80018607047B4812542014B1860704700BFC5
:103EF800B8812542014B1860704700BF8C85254268
:103F0800044AD36B19B923EA0000D06370471843F9
:103F1800D0637047002C0140014B9863704700BF85
:103F2800002C0140034B5B6B034214BF01200020AF
:103F3800704700BF002C0140FFF7F4BF014B9863A6
:103F4800704700BF002C014008B501214FF48040A4
:103F5800FFF7D2FB00214FF48040BDE80840FFF78F
:103F6800CBBB00BF014B1860704700BF0038014051
:103F780001F0FC0303F1804303F59C3301F00301D6
:103F880010B49A6889000F248C4022EA04029A60CF
:103F98009A685DF8044B00FA01F111439960704783
:103FA800014B1860704700BFDC002742014B1860C6
:103FB800704700BF00042742024B186AC0F3002074
:103FC800704700BF003801402DE9F0438DB08146AD
:103FD800002704A80E46984614460197149D00F041
:103FE800EFFEB9F1010F1CBF0423ADF808304FF004
:103FF80010024FF0800302A808BFADF80870ADF8B2
:104008000C30ADF80A2000F095FE33681BBA069311
:1040180073681BBA04A8079300F0BEFE00F0ECFE1C
:10402800012000F0F1FEB8F1000F30D0002608346E
:104038000835374654F8080C00F0F4FE54F8040C20
:1040480000F0F0FE019700E090B1102000F094FF1E
:10405800019B01330193019BB3F5803FF4D138B143
:104068000024002000F0D0FE20460DB0BDE8F0830B
:1040780000F0DEFE45F8080C00F0DAFE0836B04520
:1040880045F8040C04F1080405F10805D2D8012408
:10409800E7E700BF2DE9F04591B08246002508A862
:1040A8000F461C4616460195DDF8608000F088FE34
:1040B800BAF1010F1CBF0423ADF808304FF0180205
:1040C8004FF0800302A808BFADF80850ADF80C30D7
:1040D800ADF80A2000F02EFE3B681BBA0A937B68F5
:1040E8001BBA08A80B9300F057FE33681BBA049359
:1040F80073681BBA04A8059300F06CFE00F07CFE00
:10410800012000F081FEB8F1000F32D0199B002683
:10411800083403F10805374654F8080C00F082FE0D
:1041280054F8040C00F07EFE019700E090B11020D6
:1041380000F022FF019B01330193019BB3F5803FFF
:10414800F4D138B10024002000F05EFE204611B002
:10415800BDE8F08500F06CFE45F8080C00F068FE3C
:104168000836B04545F8040C04F1080405F10805C3
:10417800D2D80124E7E700BF014B01229A607047BB
:1041880000300240014B1860186870470030024048
:1041980039B1054A00EB810150F8043B13608842AD
:1041A800FAD1014B1868704700300240014B18687B
:1041B800704700BF00300240014B1871704700BFC4
:1041C80000300240014B1879704700BF00300240B0
:1041D80008B52B4B984219D02A4B984220D02A4B2D
:1041E800984229D0294B984232D0294B98423BD04B
:1041F800284B984200D008BD01212020FFF77CFA07
:1042080000212020BDE80840FFF776BA01211020E0
:10421800FFF772FA00211020BDE80840FFF76CBADA
:1042280001214FF40030FFF75BFA00214FF4003012
:10423800BDE80840FFF754BA01214FF48020FFF78A
:104248004FFA00214FF48020BDE80840FFF748BA34
:1042580001214FF40020FFF743FA00214FF400201A
:10426800BDE80840FFF73CBA01214FF48010FFF782
:1042780037FA00214FF48010BDE80840FFF730BA44
:10428800001001400044004000480040004C00403D
:104298000050004000140140028AF0B592B2044672
:1042A800C8880D4622F4405202438989AB882F8979
:1042B8006E892282A28922F4B05222F00C023B437A
:1042C80012043343120C9BB21343A381A38A9BB2FB
:1042D80023F440730B4385B0A3826846FFF72EF999
:1042E8001C4B9C4228D003F580639C4224D0029A40
:1042F800A389A18913F4004F2B68174D02EB8202A2
:1043080014BF5B009B0002EB8202B2FBF3F0A5FB3B
:1043180000325209642303FB120310010A040DD46E
:104328001B013233A5FB0323C3F3431343EA000203
:1043380092B2228105B0F0BD039AD9E7D900323193
:10434800A5FB0131C1F34212024392B2228105B0AA
:10435800F0BD00BF001001401F85EB5100234FF452
:1043680016510C22016042818380C38003818381BE
:10437800704700BF30B40B884D888C88028AC98882
:104388002B4323430B4392B29BB222F47062134334
:10439800038230BC704700BF0023038043808380C2
:1043A800C3807047838929B923F400531B041B0C6D
:1043B800838170479BB243F400538381704700BFE9
:1043C800038B03F47F430383038B9BB2194301835D
:1043D800704700BF838919B9C3F30E0383817047FF
:1043E8006FEA43436FEA53439BB28381704700BF30
:1043F800838A29B923F400631B041B0C838270474A
:104408009BB243F400638382704700BFC1F3080185
:10441800818070478088C0F308007047038A23F0C2
:104428000F031B041B0C0382038A9BB219430182EE
:10443800704700BF838929B923F002031B041B0CB2
:10444800838170479BB243F002038381704700BFAA
:10445800838923F400631B041B0C838183899BB22B
:1044680019438181704700BF038A23F020031B048E
:104478001B0C0382038A9BB219430182704700BF59
:10448800038A29B923F480431B041B0C0382704759
:104498009BB243F480430382704700BF83899BB279
:1044A80043F0010383817047838A29B923F0080305
:1044B8001B041B0C838270479BB243F00803838262
:1044C800704700BF038BDBB20383038B9BB243EAC5
:1044D80001210183704700BF838A29B923F0200393
:1044E8001B041B0C838270479BB243F0200383821A
:1044F800704700BF838A29B923F010031B041B0CE3
:10450800838270479BB243F010038382704700BFD9
:10451800838A23F004031B041B0C8382838A9BB2C7
:1045280019438182704700BF838A29B923F00203A7
:104538001B041B0C838270479BB243F002038382E7
:10454800704700BF838A9BB21AB923EA01018182AE
:10455800704719438182704710B401F01F04C1F3FA
:1045680042110123012903FA04F311D002290CBFD7
:104578001030143032B902685DF8044B22EA0303A4
:104588000360704702685DF8044B1343036070478B
:104598000C30EFE70388194214BF01200020704750
:1045A800C94389B201807047C1F3421210B4012394
:1045B80001F01F04012A03FA04F317D0022A0CBFE2
:1045C800028A828A92B21340028892B253B10123BE
:1045D800090A03FA01F10A4214BF184600205DF8DF
:1045E800044B704718465DF8044B7047828992B2B5
:1045F8001340E9E7090A012303FA01F1C94389B223
:1046080001807047054B00221F211A60DA6059614A
:104618009A61DA611A625A62704700BF0000055059
:104628000F4903880A68F0B447888688C4880589D2
:104638003B4322F48042334322F00102234344895E
:104648000A602B4380890A682343034322F47F626C
:104658009BB222F0020213430B60F0BC704700BF0C
:10466800000005500023038043808380C3800381BA
:1046780043818381704700BF30B4428805888488AD
:10468800C388044942EA054243EA04430A6230BC4B
:104698004B62704700000550054A136818B923F0AB
:1046A80004031360704743F004031360704700BFAE
:1046B80000000550014B02689A61704700000550E0
:1046C800054A136818B923F008031360704743F0CC
:1046D80008031360704700BF00000550054A1368BF
:1046E80018B923F480431360704743F48043136080
:1046F800704700BF00000550054A136818B923F039
:1047080001031360704743F001031360704700BF53
:1047180000000550014B986A704700BF0000055023
:10472800054B29B9DA68C04380B21040D860704799
:10473800DA681043D860704700000550030B012B5E
:1047480009D0022B054B0CBF5B681B69184214BFCC
:10475800012000207047014B9B68F7E700000550D7
:10476800014B5861704700BF00000550034B1B699F
:10477800184214BF01200020704700BF00000550F8
:10478800014B5861704700BF000005502DE9F04308
:104798008DB0164607464FF0000904A80D461C4682
:1047A800CDF80490DDF8508000F00AFBC02E00F030
:1047B8008580B6F5807F64D0802E53D097BB02AD3C
:1047C80000F01AFB042238232846ADF80820ADF87B
:1047D8000A30ADF80C7000F0ADFA04A800F0DCFA6D
:1047E800012000F011FB01E000287ED0102000F02D
:1047F800C3FB019B01330193019BB3F5803FF3D1C8
:10480800002872D0202280232846ADF80A20ADF86F
:104818000C3000F08FFA00F0EFFA012000F0F4FA03
:10482800002418E004A80CAD00F0B6FA002325F81F
:10483800283D284620228023ADF80A20ADF80C3008
:1048480000F078FA00F0D8FA012000F0DDFAB8F1AB
:10485800000F4ED10124002000F0D6FA20460DB0FA
:10486800BDE8F083ADF80E902B681BBA08936B680F
:104878001BBA0993AB681BBA0A93EB681BBA0B9374
:104888009CE74FF40073ADF80E302B681BBA049305
:104898006B681BBA0593AB681BBA0693EB681BBA27
:1048A80007932B691BBA08936B691BBA0993AB6909
:1048B8001BBA0A93EB691BBA0B937FE74FF480731B
:1048C800ADF80E302B681BBA06936B681BBA0793BA
:1048D800AB681BBA0893EB681BBA09932B691BBA20
:1048E8000A936B691BBA0B9368E70423ADF8083089
:1048F8009FE7159B002710343E4603F1100554F836
:10490800100C00F08FFA54F80C0C00F08BFA54F8E5
:10491800080C00F087FA54F8040C00F083FA0196AA
:1049280000E060B1102000F027FB019B01330193E8
:10493800019BB3F5803FF4D108B100248BE700F068
:1049480077FA45F8100C00F073FA45F80C0C00F0F3
:104958006FFA45F8080C00F06BFA1037B84545F8BF
:10496800040C04F1100405F11005C8D872E700BF63
:104978002DE9F04391B01F4606464FF0000908A8FC
:104988000D461446CDF80490DDF8648000F018FA5E
:10499800C02F00F09880B7F5807F77D0802F66D041
:1049A8002B681BBA04936B681BBA0593AB681BBAD8
:1049B8000693EB681BBA0793B6BB02AC00F01CFA6F
:1049C800042238232046ADF80820ADF80A30ADF8A7
:1049D8000C6000F0AFF908A800F0DEF9012000F043
:1049E80013FA02E0002800F08580102000F0C4FAD5
:1049F800019B01330193019BB3F5803FF2D100285D
:104A080078D0282280232046ADF80A20ADF80C3053
:104A180000F090F904A800F0DDF900F0EDF90120AC
:104A280000F0F2F900241BE008A810AC00F0B4F97B
:104A3800002324F8383D282280232046ADF80A2098
:104A4800ADF80C3000F076F904A800F0C3F900F0D6
:104A5800D3F9012000F0D8F9B8F1000F4ED10124A4
:104A6800002000F0D1F9204611B0BDE8F083ADF880
:104A78000E9023681BBA0C9363681BBA0D93A36846
:104A88001BBA0E93E3681BBA0F9389E74FF40073C0
:104A9800ADF80E3023681BBA089363681BBA0993F4
:104AA800A3681BBA0A93E3681BBA0B9323691BBA62
:104AB8000C9363691BBA0D93A3691BBA0E93E36940
:104AC8001BBA0F936CE74FF48073ADF80E30236870
:104AD8001BBA0A9363681BBA0B93A3681BBA0C939F
:104AE800E3681BBA0D9323691BBA0E9363691BBA5B
:104AF8000F9355E70423ADF808309CE7189B03F1A2
:104B080010041A9B00273E4603F1100554F8100CB8
:104B180000F088F954F80C0C00F084F954F8080CEB
:104B280000F080F954F8040C00F07CF9019600E0DC
:104B380060B1102000F020FA019B01330193019B22
:104B4800B3F5803FF4D108B1002489E700F070F98B
:104B580045F8100C00F06CF945F80C0C00F068F9F9
:104B680045F8080C00F064F91037B84545F8040C0E
:104B780004F1100405F11005C8D870E72DE9F045D7
:104B880091B09A460446002508A80F461646019596
:104B9800DDF8648000F014F9BAF1C00F00F0A680C7
:104BA800BAF5807F00F08580BAF1800F72D03B683B
:104BB8001BBA04937B681BBA0593BB681BBA0693A0
:104BC800FB681BBA08A8079300F0E6F8002C5DD133
:104BD8000423ADF808303022802302A8ADF80A205B
:104BE800ADF80C3000F0A6F804A800F0F3F800F0D7
:104BF80003F9012000F008F9B8F1000F44D0189B20
:104C080003F110041A9B002603F11005374654F8E7
:104C1800100C00F007F954F80C0C00F003F954F8E4
:104C2800080C00F0FFF854F8040C00F0FBF80197AA
:104C380000E090B1102000F09FF9019B013301932F
:104C4800019BB3F5803FF4D138B10024002000F077
:104C5800DBF8204611B0BDE8F08500F0E9F845F82A
:104C6800100C00F0E5F845F80C0C00F0E1F845F8F8
:104C7800080C00F0DDF81036B04545F8040C04F1D6
:104C8800100405F11005C2D80124DFE70023ADF8B0
:104C98000830A0E7ADF80E5033681BBA0C93736860
:104CA8001BBA0D93B3681BBA0E93F3681BBA0F9324
:104CB8007DE74FF40073ADF80E3033681BBA0893E4
:104CC80073681BBA0993B3681BBA0A93F3681BBAD3
:104CD8000B9333691BBA0C9373691BBA0D93B369B1
:104CE8001BBA0E93F3691BBA0F9360E74FF48073F6
:104CF800ADF80E3033681BBA0A9373681BBA0B936E
:104D0800B3681BBA0C93F3681BBA0D9333691BBACB
:104D18000E9373691BBA0F9349E700BF08B50121C9
:104D28001020FEF7C5FC00211020BDE80840FEF762
:104D3800BFBC00BF144B81881A6822F0380210B437
:104D48001A601C68428814431C601C6824F0C00464
:104D58001C601C6822F018022143202A196007D120
:104D68001968C28821F44071196019680A431A60E9
:104D7800054B028819685DF8044B21F0040119609D
:104D880019680A431A607047000006500023038020
:104D980043808380C3807047084B02681A62426868
:104DA8005A6282689A62C268DA6202691A63426960
:104DB8005A6382699A63C269DA63704700000650D1
:104DC8000023036043608360C360036143618361C0
:104DD800C3617047044B02681A6442685A64826867
:104DE8009A64C268DA6470470000065000230360C2
:104DF80043608360C3607047024A136843F480438A
:104E08001360704700000650054A136818B923F468
:104E180000431360704743F400431360704700BFBA
:104E280000000650014B9860704700BF0000065014
:104E3800014BD868704700BF00000650F0B482B03C
:104E4800264C00230193236923F00103236123687F
:104E580013F0080F14BF112515254FF6FF7601E052
:104E6800012A08D06268019B01330193019BB34278
:104E780002EA0502F4D1194B5A681540012D04D0F5
:104E88000025284602B0F0BC70471A6922F00202D9
:104E98001A611A6822F400421A601A680E684C688F
:104EA8008F6802F47F7202601A6C42605A6C8260EA
:104EB8009A6CC260DB6CCA6803610B690262436268
:104EC8004A698B69C96946618461C7618262C36244
:104ED8000163284602B0F0BC704700BF00000650CE
:104EE8000F4B02681A6042691A6282695A62C26983
:104EF8009A62026ADA62426A1A63826A5A63C26A08
:104F08009A63026BDA6342681A6482685A64C268F8
:104F18009A640269DA641A6842F400421A607047B7
:104F28000000065039B9064A136923EA000000F068
:104F3800FF0010617047024B1A69104318617047EF
:104F48000000065039B9064A536923EA000000F008
:104F5800FF0050617047024B5A691043586170470F
:104F680000000650034BDB69184214BF01200020E3
:104F7800704700BF00000650044B82064CBF9B6977
:104F88005B68184214BF01200020704700000650DB
:104F980008B501214020FEF78BFB00214020BDE829
:104FA8000840FEF785BB00BF054A136818B923F00F
:104FB80004031360704743F004031360704700BF95
:104FC80000080650014B9868704700BF000806505B
:104FD800054A136818B923F008031360704743F0B3
:104FE80008031360704700BF00080650024B6FEAC1
:104FF80000105860704700BF00080650034B5B68FC
:10500800184214BF01200020704700BF0008065056
:10501800FFF7F4BFC043024BC0B25860704700BFEF
:105028000008065008B5604B984235D0B0F1804F63
:105038003CD05E4B984243D05D4B98424AD05D4B82
:10504800984251D05C4B984258D05C4B98425FD004
:105058005B4B984266D05B4B98426DD05A4B984256
:1050680076D05A4B98427FD0594B984200F08880AE
:10507800584B984200F08E80574B984200D008BD9C
:1050880001214FF48070FEF72BFB00214FF4807054
:10509800BDE80840FEF724BB01210846FEF72CFBBB
:1050A80000210120BDE80840FEF726BB0121084683
:1050B800FEF716FB00210120BDE80840FEF710BBF3
:1050C80001210220FEF70CFB00210220BDE8084068
:1050D800FEF706BB01210420FEF702FB0021042095
:1050E800BDE80840FEF7FCBA01210820FEF7F8FAEF
:1050F80000210820BDE80840FEF7F2BA012110207F
:10510800FEF7EEFA00211020BDE80840FEF7E8BAE5
:1051180001212020FEF7E4FA00212020BDE8084004
:10512800FEF7DEBA01210220FEF7E6FA002102208E
:10513800BDE80840FEF7E0BA01214FF48030FEF7E1
:10514800DBFA00214FF48030BDE80840FEF7D4BAFE
:1051580001214FF40030FEF7CFFA00214FF4003060
:10516800BDE80840FEF7C8BA01214FF48020FEF7D9
:10517800C3FA00214FF48020BDE80840FEF7BCBA0E
:1051880001214020FEF7ACFA00214020BDE808408C
:10519800FEF7A6BA01218020FEF7A2FA002180209E
:1051A800BDE80840FEF79CBA00000140000400403A
:1051B80000080040000C00400010004000140040AF
:1051C8000004014000400140004401400048014003
:1051D80000180040001C004000200040234A0388BB
:1051E80090429BB212D002F5806290420ED0B0F18C
:1051F800804F0BD0A2F58032904207D002F5806232
:10520800904203D002F58062904203D14A8823F08D
:1052180070031343164A90421FD002F580629042F1
:105228001BD070B423F440730E894D680C8802F5C6
:105238006C429BB2334390420380C562048506D01A
:105248000C4B984203D00123838270BC70478B7A41
:1052580003860123838270BC704703800B884A68E9
:10526800C262038501238382704700BF00000140AA
:10527800001000400004014000234FF0FF3242605C
:105288000380038143808372704700BF0185828257
:10529800704700BF038823F070031B041B0C1943DD
:1052A8000180704741627047C1627047406A704729
:1052B800008D80B2704700BF038829B923F002032C
:1052C8001B041B0C038070479BB243F0020303804E
:1052D800704700BF038829B923F004031B041B0C83
:1052E800038070479BB243F004030380704700BFFC
:1052F800038829B923F080031B041B0C0380704723
:105308009BB243F080030380704700BF038823F0FB
:1053180008031B041B0C038003889BB219430180FC
:10532800704700BF038823F440731B041B0C0380E1
:1053380003889BB219430180704700BF038829B9CD
:1053480023F001031B041B0C038070479BB243F03E
:1053580001030380704700BFF0B5048C8F89B1F852
:1053680002E00E88194D24F001042404240C04845E
:10537800038C8488028B23F002031B0422F073023F
:105388001B0C47EA0E0712043B43120CA8429BB2BF
:10539800A4B242EA060209D005F58065A84205D004
:1053A80089688480028341630384F0BDCE890D8AB5
:1053B8004F8A23F00803334324F440748E883D4316
:1053C80023F004032C433343A4B2E9E7000001406F
:1053D800F0B5048C8E89B1F802C0B1F800E01D4D1B
:1053E80024F010042404240C0484038C8788028B82
:1053F80023F0200322F4E6421B04120446EA0C04BC
:105408001B0C120C43EA041342EA0E22A8429BB278
:10541800BCB292B209D005F58065A84205D089686A
:105428008480028381630384F0BDCD890E8A4F8A0C
:1054380023F0800343EA05134FF6BF751D408B88A0
:1054480024F440643E4345EA031344EA86049BB2CD
:10545800A4B2E4E700000140F0B5048C8D89B1F8EE
:1054680002C00F881E4E24F480742404240C048483
:10547800038CB0F804E0828B23F400731B0422F041
:1054880073021B0C45EA0C04120443EA0423120CB1
:10549800B0429BB21FFA8EFE42EA070209D0114CB5
:1054A800A04206D08968A0F804E08283C16303841F
:1054B800F0BDCC890D8A4E8A23F4006343EA0423A5
:1054C8004FF6FF341C408B882EF4405E354344EA87
:1054D80003234EEA051E9BB21FFA8EFEE2E700BFC9
:1054E8000000014000040140F0B5048C8E89B1F839
:1054F80002E00F88164D24F480542404240C0484FC
:10550800038C8488828B23F4005322F4E6421B0424
:1055180012041B0C46EA0E06120C43EA063342EA52
:105528000722A8429BB2A4B292B209D005F58065C1
:10553800A84205D089688480828301640384F0BD11
:105548000D8A24F4804444EA8514A4B2F2E700BF2B
:1055580000000140002303804380838083608381AF
:10556800C381038243827047038C10B401248C40AA
:105578009BB223EA040321F00804038418307CB1A9
:105588000439C1F34E0148F6FF740B5823400B5001
:1055980012020B585DF8044B92B21A430A50704736
:1055A80049084FF68F740B5823400B500B585DF881
:1055B800044B1A430A507047416370478163704730
:1055C800C163704701647047038B23F070031B04A9
:1055D8001B0C194301837047038B23F4E0431B041E
:1055E8001B0C43EA012189B201837047838B23F0A6
:1055F80070031B041B0C194381837047838B23F4AE
:10560800E0431B041B0C43EA012189B281837047E4
:10561800038B23F008031B041B0C194301837047F9
:10562800038B23F400631B041B0C43EA012189B29A
:1056380001837047838B23F008031B041B0C194359
:1056480081837047838B23F400631B041B0C43EA9C
:10565800012189B281837047038B23F004031B0463
:105668001B0C194301837047038B23F480631B04CD
:105678001B0C43EA012189B201837047838B23F015
:1056880004031B041B0C194381837047838B23F489
:1056980080631B041B0C43EA012189B28183704794
:1056A800038B23F080031B041B0C194301837047F1
:1056B800038BC3F30E0343EA012189B201837047C8
:1056C800838B23F080031B041B0C194381837047D1
:1056D800838BC3F30E0343EA012189B281837047A8
:1056E800038C23F002031B041B0C1943018470472D
:1056F800038C23F008031B041B0C19430184704717
:10570800038C23F020031B041B0C43EA011189B20C
:1057180001847047038C23F080031B041B0C43EAAD
:10572800011189B201847047038C23F400731B04B0
:105738001B0C43EA012189B201847047038C23F4CE
:1057480000631B041B0C43EA012189B201847047E2
:10575800038C23F400531B041B0C43EA013189B268
:1057680001847047038C10B401248C409BB223EA57
:1057780004030384038C5DF8044B02FA01F1194316
:1057880089B20184704700BF038C10B404248C4094
:105798009BB223EA04030384038C5DF8044B02FAEA
:1057A80001F1194389B20184704700BF0B88F0B535
:1057B800002B2FD0042B048C4D8851D0082B79D086
:1057C80024F480542404240CB1F804E00E89C98818
:1057D8000484878B028C45F6FF731340340340F62C
:1057E800FF4244EA0E243A4043F48053224343EAFA
:1057F800053392B29BB282830384828B22F4406287
:105808001204120C8283838B9BB243EA01239BB25E
:105818008383F0BD028C4C888B880E89C98822F05E
:1058280001021204120C0284058B028CADB225F021
:10583800F30592B22B4322F00A0243EA06132243ED
:105848009BB242F0010203830284038B23F00C0312
:105858001B041B0C0383038B9BB219430183F0BD0C
:1058680024F010042404240C8E88B1F808E0C988B8
:105878000484078B038C9BB2340223F0A00340F608
:10588800FF4244EA0E343A4043F01003224343EA0D
:10589800051392B29BB202830384028B22F4406206
:1058A8001204120C0283038B9BB243EA01239BB2BE
:1058B8000383F0BD24F480742404240C8A880E89A0
:1058C800C9880484848B038CA4B29BB224F0F304AB
:1058D80023F42063224343F4807342EA061243EA26
:1058E80005239BB292B282830384838B23F00C033B
:1058F8001B041B0C8383838B9BB219438183F0BDEC
:1059080000230122828003804380C3800381704783
:10591800F0B54F888E880B88002F0CBF022200221A
:10592800012E0CBF02240124002B4CD0038C0D89BE
:10593800C98823F010031B041B0C0384B0F818C09B
:10594800038C9BB2360240F6FF4E23F0A00346EAD2
:1059580005360EEA0C0E43F010034EEA060643EA3B
:105968000713B6B29BB206830384038B23F4406308
:105978001B041B0C0383038B9BB243EA01239BB2DA
:105988000383038C23F001031B041B0C0384038B88
:10599800068C9BB223F0F303B6B243EA051326F054
:1059A8000A059BB245F0010523432A430383028479
:1059B800038B23F00C031B041B0C0383038B9BB288
:1059C80019430183F0BD038CB1F808E0CD8823F0BA
:1059D80001031B041B0C0384018B038C89B221F087
:1059E800F3019BB20E4323F00A0346EA0E163B432B
:1059F800B6B243F0010306830384038B23F00C0340
:105A08001B041B0C0383038B9BB22B430383038C64
:105A180023F010031B041B0C0384068B018C40F637
:105A2800FF43334089B243EA0E3E21F0A0011FFA3A
:105A38008EFE41F010014EEA042441EA021204836A
:105A48000284038B23F440631B041B0C0383038B26
:105A58009BB243EA0525ADB20583F0BD406B7047A4
:105A6800806B7047C06B7047006C7047038B23F0E6
:105A78000C031B041B0C0383038B9BB21943018388
:105A8800704700BF038B23F440631B041B0C038384
:105A9800038B9BB243EA012189B20183704700BF9F
:105AA800838B23F00C031B041B0C8383838B9BB217
:105AB80019438183704700BF838B23F440631B0421
:105AC8001B0C8383838B9BB243EA012189B28183B8
